:1000000031C04BC04AC049C048C047C046C045C0C7
:1000100044C043C042C041C040C03FC03EC03DC0DC
:100020003CC03BC03AC039C038C037C036C035C00C
:1000300034C033C000000000000000001010101099
:100040001010100018181818181818001C1C1C1C68
:100050001C1C1C001E1E1E1E1E1E1E001F1F1F1FFE
:100060001F1F1F0011241FBECFEFD4E0DEBFCDBF86
:1000700011E0A0E0B1E0E4E2FAE002C005900D92E8
:10008000AE33B107D9F721E0AEE3B1E001C01D9274
:10009000AC35B207E1F727D4C3C4B2CF83FF02C0A7
:1000A000459A01C0459882FF02C0449A01C0449815
:1000B00081FF02C0439A01C0439880FF02C0429A68
:1000C000089542980895CF93C82F88B1837C88B94A
:1000D0008C2F82958F70E2DF409A419A89EF90E0F1
:1000E0000197F1F700C000004198409889EF90E037
:1000F0000197F1F700C0000088B1837C88B98C2F8C
:10010000CDDF409A419A89EF90E00197F1F700C066
:1001100000004198409889EF90E00197F1F700C006
:10012000000088B1837C88B9CF910895CF93C82F00
:10013000409888B1837C88B98C2F82958F70AEDF10
:10014000419A89EF90E00197F1F700C000004198D3
:1001500089EF90E00197F1F700C0000088B1837C3F
:1001600088B98C2F9BDF419A89EF90E00197F1F7D6
:1001700000C00000419889EF90E00197F1F700C0BE
:10018000000088B1837C88B9CF91089581E0CEDFEB
:1001900008950F931F93CF93DF93009779F0662311
:1001A00069F0EC016150062F10E00F5F1F4F080F40
:1001B000191F899188DFC017D107D9F7DF91CF9137
:1001C0001F910F910895623031F0633031F061304A
:1001D00029F4805C03C08C5E01C08C5A8068A6DF65
:1001E0000895FF920F931F93CF93DF93660F660FCF
:1001F000660F6064EC016894FF24F3F8F60EFE01CC
:10020000049111E0160F862F91DF802F5CDF21967D
:10021000612F1F11F4CFDF91CF911F910F91FF90AC
:1002200008951F93CF93DF9385EA9EE00197F1F73E
:1002300000C0000018B818B887B18C6387B987B1BF
:10024000836487B98CE088B9419AE9EFF0E031978F
:10025000F1F700C000004198E9EFF0E03197F1F7C5
:1002600000C0000088B9419A89EF90E00197F1F74A
:1002700000C000004198E9EFF0E03197F1F700C0CD
:10028000000088E088B9419A89EF90E00197F1F782
:1002900000C000004198E9EFF0E03197F1F700C0AD
:1002A000000088E243DF8CE041DFC4E3D0E060E09F
:1002B00011E0160FCE0195DF2896612F1830C1F797
:1002C000DF91CF911F910895CF93DF93EC016230BE
:1002D00009F442C020F4613009F462C07CC063308C
:1002E000A9F0643009F077C09C01369527953695C2
:1002F000279536952795A5ECB0E286D39295829501
:100300008F7089279F708927805DDDDE9E0136957D
:10031000279536952795ABE7B4E176D3AC01569592
:1003200047959A01ADECBCEC6FD396958795969561
:100330008795969587959C01220F331F880F991FEB
:10034000880F991F880F991F820F931F9A01281BEE
:10035000390BC901805DB7DE9E01ADECBCEC54D316
:10036000AC015695479556954795569547959A01F0
:100370004BD39695879596958795969587959C01ED
:10038000220F331F880F991F880F991F880F991FFD
:10039000820F931F9A01281B390BC901805D93DEE0
:1003A0009E01ADECBCEC30D39695879596958795DC
:1003B000969587959C01220F331F880F991F880FF0
:1003C000991F880F991F820F931F9E01281B390BBD
:1003D000C901805D78DEDF91CF91089529B1287041
:1003E00020934F0199B1907190934E0180915901E2
:1003F0008823F1F0211107C0992381F180914501F3
:10040000815080934501809145018823A1F081307E
:1004100029F4992339F080E090E015C08F3F71F402
:10042000992379F0082E000C990B109245010BC00E
:1004300080E090E008C080E090E005C080E090E0BF
:1004400002C080E090E02093590120914501820F85
:10045000911D27FD9A9510924501089580914501BF
:100460008F5F80934501CFCF83B181708093460128
:1004700090914D01992351F0811108C0909158013C
:100480009F5F9093580191E09093500180934D01AC
:10049000089560E080E097DE67E08BE291E079DE2E
:1004A00060E087E090DE63E080913E0190913F0143
:1004B0000BDF60E08BE087DE62E083E391E069DEE2
:1004C0008091550190915601992344F460E08DE0AC
:1004D0007ADE64E080E090E0F7DE09C060E08DE065
:1004E00072DE63E08091550190915601EDDE61E08E
:1004F00080E069DE66E086E391E04BDE61E086E065
:1005000062DE80918A0090918B0063E0DDDE61E025
:100510008BE059DE62E083E391E03BDE61E08DE059
:1005200052DE63E08091510190915201CDDE089539
:1005300080913E0190913F010297209155013091A9
:100540005601821B930B039738F480E991E0909356
:100550008900809388000895109289001092880085
:10056000089580913E0190913F010B972091550194
:1005700030915601821B930B879738F484EF91E0FA
:1005800090938900809388000895D2DF0895809128
:100590003E0190913F01C397209155013091560142
:1005A000821B930B873C910538F488E592E0909389
:1005B0008900809388000895D4DF089580913E01DA
:1005C00090913F018B5F9109209155013091560127
:1005D000821B930B8336910538F48CEB92E0909359
:1005E0008900809388000895D2DF089580913E01AC
:1005F00090913F01895C91092091550130915601FC
:10060000821B930B8731914038F480E293E0909302
:100610008900809388000895D1DF089520915501C5
:100620003091560180913E0190913F012817390782
:1006300010F4DCDF0895109289001092880008956C
:10064000EDDF87E070D1833391052CF49093560150
:100650008093550105C0C297909356018093550130
:10066000BDDE22E3AC01249FC001259F900D112423
:1006700020913E0130913F01820F931F90933F01E3
:1006800080933E01409155015091560121E03091F7
:100690004401313009F020E0222359F021E0841791
:1006A000950709F020E0222321F05A9A1092440184
:1006B00008C0841B950B459720F081E0809344018E
:1006C0005A9880915501909156018B3E914024F0AB
:1006D000109289001092880080913E0190913F0114
:1006E0008B3E914020F010923F0110923E01089500
:1006F000EF92FF920F931F93CF93DF93CADEA0DF99
:1007000086E011D12091400130914101820F931F69
:1007100090934101809340014091420150914301E7
:100720004F5F5F4F50934301409342014431510565
:10073000C1F49C01ADECBCEC67D1929582958F70B1
:1007400089279F7089278F58910990935201809330
:1007500051011092410110924001109243011092F8
:1007600042018091510190915201C29718F480E0AA
:1007700003D104C081E000D18FEF87BD75DE809189
:100780005001882309F4A8C01092500181E08093A1
:100790005B0180E0FCD081E0EFD00FEFFF24F39409
:1007A000CAE8D0E012E30F2EF3E0EF2EF02D8FC059
:1007B00015DE97B525E0829F900D112497BD54DE7C
:1007C0008091510190915201893C910508F007BD3B
:1007D00060DE80915001882309F479C010925001A5
:1007E000F0925B018F2DE5D01092430110924201EF
:1007F000109241011092400165C086E094D0209192
:1008000040013091410121573109820F931F90938C
:1008100041018093400120914201309143012F5FBB
:100820003F4F309343012093420124313105B1F40D
:100830009C01ADECBCECE8D0929582958F70892735
:100840009F7089279093520180935101109241012A
:10085000109240011092430110924201BFDD2881A5
:100860003981AC01149FC001159F900D1124280FF0
:10087000391F39832883F8DD0CDE87B5803F10F4FB
:1008800080E097D088819981853F914010F019824E
:100890001882809150018823A9F080E08AD01092BC
:1008A0005001E0925B015A988F2D71D080915101D7
:1008B00090915201889718F480E05ED003C08F2D8C
:1008C0005BD007BD80915B01823008F496CF8091A8
:1008D0005B01823008F46CCFDF91CF911F910F91B3
:1008E000FF90EF90089577D03AD08BB189618BB9A2
:1008F0008AB18FEF8AB953985498209892DC46DCDD
:100900002FEF80E792E0215080409040E1F700C057
:100910000000599A81E03BD081E02ED081E08093A5
:100920004401E6DEFECFECE7F0E09081907F892B7A
:1009300080838AE18A95F1F700C0EAE7F0E08081E0
:1009400080648083808184FFFDCFEAE7F0E08081CE
:10095000806180838091780090917900089518B823
:1009600017B8ECE7F0E0808180648083EAE7F0E08C
:100970008081856880830895882329F084B5806804
:1009800084BD17BC089584B58F7784BD08958823EE
:1009900051F0E0E8F0E08081806880831092890067
:1009A000109288000895E0E8F0E080818F778083DE
:1009B0000895882351F0E0E8F0E080818062808330
:1009C00010928B0010928A000895E0E8F0E0808198
:1009D0008F7D8083089586E084B980E68AB984B5E6
:1009E000836084BD85B5836085BDE0E8F0E08081EB
:1009F00083608083E1E8F0E080818B608083E2E8BF
:100A0000F0E0808180830895A29FB001B39FC00170
:100A1000A39F01D0B29F700D811D1124911D0895D7
:040A2000F894FFCF78
:100A240053455454494E475300566F6963653A0021
:100A34004C696768743A003F3F3F3F3F3A204F4656
:100A4400460053657474696E677300536F6C646514
:0E0A5400723A00543A0044727965723A00001A
:00000001FF
